{
  "_format": "hh-sol-artifact-1",
  "contractName": "DegenToken",
  "sourceName": "contracts/DegenToken.sol",
  "abi": [
    {
      "inputs": [],
      "stateMutability": "nonpayable",
      "type": "constructor"
    },
    {
      "anonymous": false,
      "inputs": [
        {
          "indexed": true,
          "internalType": "address",
          "name": "owner",
          "type": "address"
        },
        {
          "indexed": true,
          "internalType": "address",
          "name": "spender",
          "type": "address"
        },
        {
          "indexed": false,
          "internalType": "uint256",
          "name": "value",
          "type": "uint256"
        }
      ],
      "name": "Approval",
      "type": "event"
    },
    {
      "anonymous": false,
      "inputs": [
        {
          "indexed": true,
          "internalType": "address",
          "name": "previousOwner",
          "type": "address"
        },
        {
          "indexed": true,
          "internalType": "address",
          "name": "newOwner",
          "type": "address"
        }
      ],
      "name": "OwnershipTransferred",
      "type": "event"
    },
    {
      "anonymous": false,
      "inputs": [
        {
          "indexed": true,
          "internalType": "address",
          "name": "from",
          "type": "address"
        },
        {
          "indexed": true,
          "internalType": "address",
          "name": "to",
          "type": "address"
        },
        {
          "indexed": false,
          "internalType": "uint256",
          "name": "value",
          "type": "uint256"
        }
      ],
      "name": "Transfer",
      "type": "event"
    },
    {
      "inputs": [
        {
          "internalType": "address",
          "name": "owner",
          "type": "address"
        },
        {
          "internalType": "address",
          "name": "spender",
          "type": "address"
        }
      ],
      "name": "allowance",
      "outputs": [
        {
          "internalType": "uint256",
          "name": "",
          "type": "uint256"
        }
      ],
      "stateMutability": "view",
      "type": "function"
    },
    {
      "inputs": [
        {
          "internalType": "address",
          "name": "spender",
          "type": "address"
        },
        {
          "internalType": "uint256",
          "name": "amount",
          "type": "uint256"
        }
      ],
      "name": "approve",
      "outputs": [
        {
          "internalType": "bool",
          "name": "",
          "type": "bool"
        }
      ],
      "stateMutability": "nonpayable",
      "type": "function"
    },
    {
      "inputs": [
        {
          "internalType": "address",
          "name": "account",
          "type": "address"
        }
      ],
      "name": "balanceOf",
      "outputs": [
        {
          "internalType": "uint256",
          "name": "",
          "type": "uint256"
        }
      ],
      "stateMutability": "view",
      "type": "function"
    },
    {
      "inputs": [
        {
          "internalType": "uint256",
          "name": "amount",
          "type": "uint256"
        }
      ],
      "name": "burnTokens",
      "outputs": [],
      "stateMutability": "nonpayable",
      "type": "function"
    },
    {
      "inputs": [],
      "name": "checkBalance",
      "outputs": [
        {
          "internalType": "uint256",
          "name": "",
          "type": "uint256"
        }
      ],
      "stateMutability": "view",
      "type": "function"
    },
    {
      "inputs": [],
      "name": "decimals",
      "outputs": [
        {
          "internalType": "uint8",
          "name": "",
          "type": "uint8"
        }
      ],
      "stateMutability": "view",
      "type": "function"
    },
    {
      "inputs": [
        {
          "internalType": "address",
          "name": "spender",
          "type": "address"
        },
        {
          "internalType": "uint256",
          "name": "subtractedValue",
          "type": "uint256"
        }
      ],
      "name": "decreaseAllowance",
      "outputs": [
        {
          "internalType": "bool",
          "name": "",
          "type": "bool"
        }
      ],
      "stateMutability": "nonpayable",
      "type": "function"
    },
    {
      "inputs": [
        {
          "internalType": "address",
          "name": "spender",
          "type": "address"
        },
        {
          "internalType": "uint256",
          "name": "addedValue",
          "type": "uint256"
        }
      ],
      "name": "increaseAllowance",
      "outputs": [
        {
          "internalType": "bool",
          "name": "",
          "type": "bool"
        }
      ],
      "stateMutability": "nonpayable",
      "type": "function"
    },
    {
      "inputs": [
        {
          "internalType": "address",
          "name": "to",
          "type": "address"
        },
        {
          "internalType": "uint256",
          "name": "amount",
          "type": "uint256"
        }
      ],
      "name": "mint",
      "outputs": [],
      "stateMutability": "nonpayable",
      "type": "function"
    },
    {
      "inputs": [],
      "name": "name",
      "outputs": [
        {
          "internalType": "string",
          "name": "",
          "type": "string"
        }
      ],
      "stateMutability": "view",
      "type": "function"
    },
    {
      "inputs": [],
      "name": "owner",
      "outputs": [
        {
          "internalType": "address",
          "name": "",
          "type": "address"
        }
      ],
      "stateMutability": "view",
      "type": "function"
    },
    {
      "inputs": [
        {
          "internalType": "uint8",
          "name": "itemNumber",
          "type": "uint8"
        }
      ],
      "name": "redeemTokens",
      "outputs": [
        {
          "internalType": "string",
          "name": "",
          "type": "string"
        }
      ],
      "stateMutability": "payable",
      "type": "function"
    },
    {
      "inputs": [],
      "name": "renounceOwnership",
      "outputs": [],
      "stateMutability": "nonpayable",
      "type": "function"
    },
    {
      "inputs": [],
      "name": "showStoreItems",
      "outputs": [
        {
          "internalType": "string",
          "name": "",
          "type": "string"
        }
      ],
      "stateMutability": "view",
      "type": "function"
    },
    {
      "inputs": [],
      "name": "symbol",
      "outputs": [
        {
          "internalType": "string",
          "name": "",
          "type": "string"
        }
      ],
      "stateMutability": "view",
      "type": "function"
    },
    {
      "inputs": [],
      "name": "totalSupply",
      "outputs": [
        {
          "internalType": "uint256",
          "name": "",
          "type": "uint256"
        }
      ],
      "stateMutability": "view",
      "type": "function"
    },
    {
      "inputs": [
        {
          "internalType": "address",
          "name": "to",
          "type": "address"
        },
        {
          "internalType": "uint256",
          "name": "amount",
          "type": "uint256"
        }
      ],
      "name": "transfer",
      "outputs": [
        {
          "internalType": "bool",
          "name": "",
          "type": "bool"
        }
      ],
      "stateMutability": "nonpayable",
      "type": "function"
    },
    {
      "inputs": [
        {
          "internalType": "address",
          "name": "from",
          "type": "address"
        },
        {
          "internalType": "address",
          "name": "to",
          "type": "address"
        },
        {
          "internalType": "uint256",
          "name": "amount",
          "type": "uint256"
        }
      ],
      "name": "transferFrom",
      "outputs": [
        {
          "internalType": "bool",
          "name": "",
          "type": "bool"
        }
      ],
      "stateMutability": "nonpayable",
      "type": "function"
    },
    {
      "inputs": [
        {
          "internalType": "address",
          "name": "newOwner",
          "type": "address"
        }
      ],
      "name": "transferOwnership",
      "outputs": [],
      "stateMutability": "nonpayable",
      "type": "function"
    },
    {
      "inputs": [
        {
          "internalType": "address",
          "name": "receiver",
          "type": "address"
        },
        {
          "internalType": "uint256",
          "name": "amount",
          "type": "uint256"
        }
      ],
      "name": "transferTokens",
      "outputs": [],
      "stateMutability": "nonpayable",
      "type": "function"
    }
  ],
  "bytecode": "0x60806040523480156200001157600080fd5b506040518060400160405280600581526020017f446567656e0000000000000000000000000000000000000000000000000000008152506040518060400160405280600381526020017f44474e000000000000000000000000000000000000000000000000000000000081525081600390816200008f9190620005e1565b508060049081620000a19190620005e1565b505050620000c4620000b86200029960201b60201c565b620002a160201b60201c565b600660405180604001604052806040518060400160405280600d81526020017f4b656e6e656479205368697274000000000000000000000000000000000000008152508152602001606481525090806001815401808255809150506001900390600052602060002090600202016000909190919091506000820151816000019081620001519190620005e1565b50602082015181600101555050600660405180604001604052806040518060400160405280600a81526020017f5472756d70204361726400000000000000000000000000000000000000000000815250815260200160c881525090806001815401808255809150506001900390600052602060002090600202016000909190919091506000820151816000019081620001eb9190620005e1565b50602082015181600101555050600660405180604001604052806040518060400160405280600581526020017f4269646574000000000000000000000000000000000000000000000000000000815250815260200161012c81525090806001815401808255809150506001900390600052602060002090600202016000909190919091506000820151816000019081620002869190620005e1565b50602082015181600101555050620006c8565b600033905090565b6000600560009054906101000a900473ffffffffffffffffffffffffffffffffffffffff16905081600560006101000a81548173ffffffffffffffffffffffffffffffffffffffff021916908373ffffffffffffffffffffffffffffffffffffffff1602179055508173ffffffffffffffffffffffffffffffffffffffff168173ffffffffffffffffffffffffffffffffffffffff167f8be0079c531659141344cd1fd0a4f28419497f9722a3daafe3b4186f6b6457e060405160405180910390a35050565b600081519050919050565b7f4e487b7100000000000000000000000000000000000000000000000000000000600052604160045260246000fd5b7f4e487b7100000000000000000000000000000000000000000000000000000000600052602260045260246000fd5b60006002820490506001821680620003e957607f821691505b602082108103620003ff57620003fe620003a1565b5b50919050565b60008190508160005260206000209050919050565b60006020601f8301049050919050565b600082821b905092915050565b600060088302620004697fffffffffffffffffffffffffffffffffffffffffffffffffffffffffffffffff826200042a565b6200047586836200042a565b95508019841693508086168417925050509392505050565b6000819050919050565b6000819050919050565b6000620004c2620004bc620004b6846200048d565b62000497565b6200048d565b9050919050565b6000819050919050565b620004de83620004a1565b620004f6620004ed82620004c9565b84845462000437565b825550505050565b600090565b6200050d620004fe565b6200051a818484620004d3565b505050565b5b8181101562000542576200053660008262000503565b60018101905062000520565b5050565b601f82111562000591576200055b8162000405565b62000566846200041a565b8101602085101562000576578190505b6200058e62000585856200041a565b8301826200051f565b50505b505050565b600082821c905092915050565b6000620005b66000198460080262000596565b1980831691505092915050565b6000620005d18383620005a3565b9150826002028217905092915050565b620005ec8262000367565b67ffffffffffffffff81111562000608576200060762000372565b5b620006148254620003d0565b6200062182828562000546565b600060209050601f83116001811462000659576000841562000644578287015190505b620006508582620005c3565b865550620006c0565b601f198416620006698662000405565b60005b8281101562000693578489015182556001820191506020850194506020810190506200066c565b86831015620006b35784890151620006af601f891682620005a3565b8355505b6001600288020188555050505b505050505050565b6126f680620006d86000396000f3fe60806040526004361061011f5760003560e01c806370a08231116100a0578063a9059cbb11610064578063a9059cbb146103f0578063bec3fa171461042d578063c71daccb14610456578063dd62ed3e14610481578063f2fde38b146104be5761011f565b806370a0823114610309578063715018a6146103465780638da5cb5b1461035d57806395d89b4114610388578063a457c2d7146103b35761011f565b8063313ce567116100e7578063313ce5671461021f578063395093511461024a57806340c10f191461028757806350aed53e146102b05780636d1b229d146102e05761011f565b806306fdde03146101245780630934074f1461014f578063095ea7b31461017a57806318160ddd146101b757806323b872dd146101e2575b600080fd5b34801561013057600080fd5b506101396104e7565b604051610146919061186e565b60405180910390f35b34801561015b57600080fd5b50610164610579565b604051610171919061186e565b60405180910390f35b34801561018657600080fd5b506101a1600480360381019061019c9190611929565b61063e565b6040516101ae9190611984565b60405180910390f35b3480156101c357600080fd5b506101cc610661565b6040516101d991906119ae565b60405180910390f35b3480156101ee57600080fd5b50610209600480360381019061020491906119c9565b61066b565b6040516102169190611984565b60405180910390f35b34801561022b57600080fd5b5061023461069a565b6040516102419190611a38565b60405180910390f35b34801561025657600080fd5b50610271600480360381019061026c9190611929565b6106a3565b60405161027e9190611984565b60405180910390f35b34801561029357600080fd5b506102ae60048036038101906102a99190611929565b6106da565b005b6102ca60048036038101906102c59190611a7f565b6106f0565b6040516102d7919061186e565b60405180910390f35b3480156102ec57600080fd5b5061030760048036038101906103029190611aac565b61093a565b005b34801561031557600080fd5b50610330600480360381019061032b9190611ad9565b610947565b60405161033d91906119ae565b60405180910390f35b34801561035257600080fd5b5061035b61098f565b005b34801561036957600080fd5b506103726109a3565b60405161037f9190611b15565b60405180910390f35b34801561039457600080fd5b5061039d6109cd565b6040516103aa919061186e565b60405180910390f35b3480156103bf57600080fd5b506103da60048036038101906103d59190611929565b610a5f565b6040516103e79190611984565b60405180910390f35b3480156103fc57600080fd5b5061041760048036038101906104129190611929565b610ad6565b6040516104249190611984565b60405180910390f35b34801561043957600080fd5b50610454600480360381019061044f9190611929565b610af9565b005b34801561046257600080fd5b5061046b610b5f565b60405161047891906119ae565b60405180910390f35b34801561048d57600080fd5b506104a860048036038101906104a39190611b30565b610b6f565b6040516104b591906119ae565b60405180910390f35b3480156104ca57600080fd5b506104e560048036038101906104e09190611ad9565b610bf6565b005b6060600380546104f690611b9f565b80601f016020809104026020016040519081016040528092919081815260200182805461052290611b9f565b801561056f5780601f106105445761010080835404028352916020019161056f565b820191906000526020600020905b81548152906001019060200180831161055257829003601f168201915b5050505050905090565b606060006040518060400160405280601081526020017f417661696c61626c65204974656d733a00000000000000000000000000000000815250905060005b60068054905081101561063657816105db6001836105d69190611bff565b610c79565b600683815481106105ef576105ee611c33565b5b906000526020600020906002020160000160405160200161061293929190611d82565b6040516020818303038152906040529150808061062e90611dd1565b9150506105b8565b508091505090565b600080610649610d47565b9050610656818585610d4f565b600191505092915050565b6000600254905090565b600080610676610d47565b9050610683858285610f18565b61068e858585610fa4565b60019150509392505050565b60006012905090565b6000806106ae610d47565b90506106cf8185856106c08589610b6f565b6106ca9190611bff565b610d4f565b600191505092915050565b6106e261121a565b6106ec8282611298565b5050565b606060008260ff1611801561070d57506006805490508260ff1611155b61074c576040517f08c379a000000000000000000000000000000000000000000000000000000000815260040161074390611e65565b60405180910390fd5b6000600660018461075d9190611e85565b60ff168154811061077157610770611c33565b5b906000526020600020906002020160405180604001604052908160008201805461079a90611b9f565b80601f01602080910402602001604051908101604052809291908181526020018280546107c690611b9f565b80156108135780601f106107e857610100808354040283529160200191610813565b820191906000526020600020905b8154815290600101906020018083116107f657829003601f168201915b50505050508152602001600182015481525050905080602001513073ffffffffffffffffffffffffffffffffffffffff166370a08231336040518263ffffffff1660e01b81526004016108669190611b15565b602060405180830381865afa158015610883573d6000803e3d6000fd5b505050506040513d601f19601f820116820180604052508101906108a79190611ecf565b10156108e8576040517f08c379a00000000000000000000000000000000000000000000000000000000081526004016108df90611f48565b60405180910390fd5b6108f633826020015161063e565b5061090d336109036109a3565b836020015161066b565b5080600001516040516020016109239190611fda565b604051602081830303815290604052915050919050565b61094433826113ee565b50565b60008060008373ffffffffffffffffffffffffffffffffffffffff1673ffffffffffffffffffffffffffffffffffffffff168152602001908152602001600020549050919050565b61099761121a565b6109a160006115bb565b565b6000600560009054906101000a900473ffffffffffffffffffffffffffffffffffffffff16905090565b6060600480546109dc90611b9f565b80601f0160208091040260200160405190810160405280929190818152602001828054610a0890611b9f565b8015610a555780601f10610a2a57610100808354040283529160200191610a55565b820191906000526020600020905b815481529060010190602001808311610a3857829003601f168201915b5050505050905090565b600080610a6a610d47565b90506000610a788286610b6f565b905083811015610abd576040517f08c379a0000000000000000000000000000000000000000000000000000000008152600401610ab49061206e565b60405180910390fd5b610aca8286868403610d4f565b60019250505092915050565b600080610ae1610d47565b9050610aee818585610fa4565b600191505092915050565b80610b0333610947565b1015610b44576040517f08c379a0000000000000000000000000000000000000000000000000000000008152600401610b3b90611f48565b60405180910390fd5b610b4e338261063e565b50610b5a33838361066b565b505050565b6000610b6a33610947565b905090565b6000600160008473ffffffffffffffffffffffffffffffffffffffff1673ffffffffffffffffffffffffffffffffffffffff16815260200190815260200160002060008373ffffffffffffffffffffffffffffffffffffffff1673ffffffffffffffffffffffffffffffffffffffff16815260200190815260200160002054905092915050565b610bfe61121a565b600073ffffffffffffffffffffffffffffffffffffffff168173ffffffffffffffffffffffffffffffffffffffff1603610c6d576040517f08c379a0000000000000000000000000000000000000000000000000000000008152600401610c6490612100565b60405180910390fd5b610c76816115bb565b50565b606060006001610c8884611681565b01905060008167ffffffffffffffff811115610ca757610ca6612120565b5b6040519080825280601f01601f191660200182016040528015610cd95781602001600182028036833780820191505090505b509050600082602001820190505b600115610d3c578080600190039150507f3031323334353637383961626364656600000000000000000000000000000000600a86061a8153600a8581610d3057610d2f61214f565b5b04945060008503610ce7575b819350505050919050565b600033905090565b600073ffffffffffffffffffffffffffffffffffffffff168373ffffffffffffffffffffffffffffffffffffffff1603610dbe576040517f08c379a0000000000000000000000000000000000000000000000000000000008152600401610db5906121f0565b60405180910390fd5b600073ffffffffffffffffffffffffffffffffffffffff168273ffffffffffffffffffffffffffffffffffffffff1603610e2d576040517f08c379a0000000000000000000000000000000000000000000000000000000008152600401610e2490612282565b60405180910390fd5b80600160008573ffffffffffffffffffffffffffffffffffffffff1673ffffffffffffffffffffffffffffffffffffffff16815260200190815260200160002060008473ffffffffffffffffffffffffffffffffffffffff1673ffffffffffffffffffffffffffffffffffffffff168152602001908152602001600020819055508173ffffffffffffffffffffffffffffffffffffffff168373ffffffffffffffffffffffffffffffffffffffff167f8c5be1e5ebec7d5bd14f71427d1e84f3dd0314c0f7b2291e5b200ac8c7c3b92583604051610f0b91906119ae565b60405180910390a3505050565b6000610f248484610b6f565b90507fffffffffffffffffffffffffffffffffffffffffffffffffffffffffffffffff8114610f9e5781811015610f90576040517f08c379a0000000000000000000000000000000000000000000000000000000008152600401610f87906122ee565b60405180910390fd5b610f9d8484848403610d4f565b5b50505050565b600073ffffffffffffffffffffffffffffffffffffffff168373ffffffffffffffffffffffffffffffffffffffff1603611013576040517f08c379a000000000000000000000000000000000000000000000000000000000815260040161100a90612380565b60405180910390fd5b600073ffffffffffffffffffffffffffffffffffffffff168273ffffffffffffffffffffffffffffffffffffffff1603611082576040517f08c379a000000000000000000000000000000000000000000000000000000000815260040161107990612412565b60405180910390fd5b61108d8383836117d4565b60008060008573ffffffffffffffffffffffffffffffffffffffff1673ffffffffffffffffffffffffffffffffffffffff16815260200190815260200160002054905081811015611113576040517f08c379a000000000000000000000000000000000000000000000000000000000815260040161110a906124a4565b60405180910390fd5b8181036000808673ffffffffffffffffffffffffffffffffffffffff1673ffffffffffffffffffffffffffffffffffffffff16815260200190815260200160002081905550816000808573ffffffffffffffffffffffffffffffffffffffff1673ffffffffffffffffffffffffffffffffffffffff168152602001908152602001600020600082825401925050819055508273ffffffffffffffffffffffffffffffffffffffff168473ffffffffffffffffffffffffffffffffffffffff167fddf252ad1be2c89b69c2b068fc378daa952ba7f163c4a11628f55a4df523b3ef8460405161120191906119ae565b60405180910390a36112148484846117d9565b50505050565b611222610d47565b73ffffffffffffffffffffffffffffffffffffffff166112406109a3565b73ffffffffffffffffffffffffffffffffffffffff1614611296576040517f08c379a000000000000000000000000000000000000000000000000000000000815260040161128d90612510565b60405180910390fd5b565b600073ffffffffffffffffffffffffffffffffffffffff168273ffffffffffffffffffffffffffffffffffffffff1603611307576040517f08c379a00000000000000000000000000000000000000000000000000000000081526004016112fe9061257c565b60405180910390fd5b611313600083836117d4565b80600260008282546113259190611bff565b92505081905550806000808473ffffffffffffffffffffffffffffffffffffffff1673ffffffffffffffffffffffffffffffffffffffff168152602001908152602001600020600082825401925050819055508173ffffffffffffffffffffffffffffffffffffffff16600073ffffffffffffffffffffffffffffffffffffffff167fddf252ad1be2c89b69c2b068fc378daa952ba7f163c4a11628f55a4df523b3ef836040516113d691906119ae565b60405180910390a36113ea600083836117d9565b5050565b600073ffffffffffffffffffffffffffffffffffffffff168273ffffffffffffffffffffffffffffffffffffffff160361145d576040517f08c379a00000000000000000000000000000000000000000000000000000000081526004016114549061260e565b60405180910390fd5b611469826000836117d4565b60008060008473ffffffffffffffffffffffffffffffffffffffff1673ffffffffffffffffffffffffffffffffffffffff168152602001908152602001600020549050818110156114ef576040517f08c379a00000000000000000000000000000000000000000000000000000000081526004016114e6906126a0565b60405180910390fd5b8181036000808573ffffffffffffffffffffffffffffffffffffffff1673ffffffffffffffffffffffffffffffffffffffff1681526020019081526020016000208190555081600260008282540392505081905550600073ffffffffffffffffffffffffffffffffffffffff168373ffffffffffffffffffffffffffffffffffffffff167fddf252ad1be2c89b69c2b068fc378daa952ba7f163c4a11628f55a4df523b3ef846040516115a291906119ae565b60405180910390a36115b6836000846117d9565b505050565b6000600560009054906101000a900473ffffffffffffffffffffffffffffffffffffffff16905081600560006101000a81548173ffffffffffffffffffffffffffffffffffffffff021916908373ffffffffffffffffffffffffffffffffffffffff1602179055508173ffffffffffffffffffffffffffffffffffffffff168173ffffffffffffffffffffffffffffffffffffffff167f8be0079c531659141344cd1fd0a4f28419497f9722a3daafe3b4186f6b6457e060405160405180910390a35050565b600080600090507a184f03e93ff9f4daa797ed6e38ed64bf6a1f01000000000000000083106116df577a184f03e93ff9f4daa797ed6e38ed64bf6a1f01000000000000000083816116d5576116d461214f565b5b0492506040810190505b6d04ee2d6d415b85acef8100000000831061171c576d04ee2d6d415b85acef810000000083816117125761171161214f565b5b0492506020810190505b662386f26fc10000831061174b57662386f26fc1000083816117415761174061214f565b5b0492506010810190505b6305f5e1008310611774576305f5e100838161176a5761176961214f565b5b0492506008810190505b612710831061179957612710838161178f5761178e61214f565b5b0492506004810190505b606483106117bc57606483816117b2576117b161214f565b5b0492506002810190505b600a83106117cb576001810190505b80915050919050565b505050565b505050565b600081519050919050565b600082825260208201905092915050565b60005b838110156118185780820151818401526020810190506117fd565b60008484015250505050565b6000601f19601f8301169050919050565b6000611840826117de565b61184a81856117e9565b935061185a8185602086016117fa565b61186381611824565b840191505092915050565b600060208201905081810360008301526118888184611835565b905092915050565b600080fd5b600073ffffffffffffffffffffffffffffffffffffffff82169050919050565b60006118c082611895565b9050919050565b6118d0816118b5565b81146118db57600080fd5b50565b6000813590506118ed816118c7565b92915050565b6000819050919050565b611906816118f3565b811461191157600080fd5b50565b600081359050611923816118fd565b92915050565b600080604083850312156119405761193f611890565b5b600061194e858286016118de565b925050602061195f85828601611914565b9150509250929050565b60008115159050919050565b61197e81611969565b82525050565b60006020820190506119996000830184611975565b92915050565b6119a8816118f3565b82525050565b60006020820190506119c3600083018461199f565b92915050565b6000806000606084860312156119e2576119e1611890565b5b60006119f0868287016118de565b9350506020611a01868287016118de565b9250506040611a1286828701611914565b9150509250925092565b600060ff82169050919050565b611a3281611a1c565b82525050565b6000602082019050611a4d6000830184611a29565b92915050565b611a5c81611a1c565b8114611a6757600080fd5b50565b600081359050611a7981611a53565b92915050565b600060208284031215611a9557611a94611890565b5b6000611aa384828501611a6a565b91505092915050565b600060208284031215611ac257611ac1611890565b5b6000611ad084828501611914565b91505092915050565b600060208284031215611aef57611aee611890565b5b6000611afd848285016118de565b91505092915050565b611b0f816118b5565b82525050565b6000602082019050611b2a6000830184611b06565b92915050565b60008060408385031215611b4757611b46611890565b5b6000611b55858286016118de565b9250506020611b66858286016118de565b9150509250929050565b7f4e487b7100000000000000000000000000000000000000000000000000000000600052602260045260246000fd5b60006002820490506001821680611bb757607f821691505b602082108103611bca57611bc9611b70565b5b50919050565b7f4e487b7100000000000000000000000000000000000000000000000000000000600052601160045260246000fd5b6000611c0a826118f3565b9150611c15836118f3565b9250828201905080821115611c2d57611c2c611bd0565b5b92915050565b7f4e487b7100000000000000000000000000000000000000000000000000000000600052603260045260246000fd5b600081905092915050565b6000611c78826117de565b611c828185611c62565b9350611c928185602086016117fa565b80840191505092915050565b7f0a00000000000000000000000000000000000000000000000000000000000000815250565b7f2e20000000000000000000000000000000000000000000000000000000000000815250565b60008190508160005260206000209050919050565b60008154611d0c81611b9f565b611d168186611c62565b94506001821660008114611d315760018114611d4657611d79565b60ff1983168652811515820286019350611d79565b611d4f85611cea565b60005b83811015611d7157815481890152600182019150602081019050611d52565b838801955050505b50505092915050565b6000611d8e8286611c6d565b9150611d9982611c9e565b600182019150611da98285611c6d565b9150611db482611cc4565b600282019150611dc48284611cff565b9150819050949350505050565b6000611ddc826118f3565b91507fffffffffffffffffffffffffffffffffffffffffffffffffffffffffffffffff8203611e0e57611e0d611bd0565b5b600182019050919050565b7f496e76616c69642063686f696365000000000000000000000000000000000000600082015250565b6000611e4f600e836117e9565b9150611e5a82611e19565b602082019050919050565b60006020820190508181036000830152611e7e81611e42565b9050919050565b6000611e9082611a1c565b9150611e9b83611a1c565b9250828203905060ff811115611eb457611eb3611bd0565b5b92915050565b600081519050611ec9816118fd565b92915050565b600060208284031215611ee557611ee4611890565b5b6000611ef384828501611eba565b91505092915050565b7f496e73756666696369656e742042616c616e6365000000000000000000000000600082015250565b6000611f326014836117e9565b9150611f3d82611efc565b602082019050919050565b60006020820190508181036000830152611f6181611f25565b9050919050565b7f5375636365737366756c6c792072656465656d656420746f6b656e7320666f7260008201527f2000000000000000000000000000000000000000000000000000000000000000602082015250565b6000611fc4602183611c62565b9150611fcf82611f68565b602182019050919050565b6000611fe582611fb7565b9150611ff18284611c6d565b915081905092915050565b7f45524332303a2064656372656173656420616c6c6f77616e63652062656c6f7760008201527f207a65726f000000000000000000000000000000000000000000000000000000602082015250565b60006120586025836117e9565b915061206382611ffc565b604082019050919050565b600060208201905081810360008301526120878161204b565b9050919050565b7f4f776e61626c653a206e6577206f776e657220697320746865207a65726f206160008201527f6464726573730000000000000000000000000000000000000000000000000000602082015250565b60006120ea6026836117e9565b91506120f58261208e565b604082019050919050565b60006020820190508181036000830152612119816120dd565b9050919050565b7f4e487b7100000000000000000000000000000000000000000000000000000000600052604160045260246000fd5b7f4e487b7100000000000000000000000000000000000000000000000000000000600052601260045260246000fd5b7f45524332303a20617070726f76652066726f6d20746865207a65726f2061646460008201527f7265737300000000000000000000000000000000000000000000000000000000602082015250565b60006121da6024836117e9565b91506121e58261217e565b604082019050919050565b60006020820190508181036000830152612209816121cd565b9050919050565b7f45524332303a20617070726f766520746f20746865207a65726f20616464726560008201527f7373000000000000000000000000000000000000000000000000000000000000602082015250565b600061226c6022836117e9565b915061227782612210565b604082019050919050565b6000602082019050818103600083015261229b8161225f565b9050919050565b7f45524332303a20696e73756666696369656e7420616c6c6f77616e6365000000600082015250565b60006122d8601d836117e9565b91506122e3826122a2565b602082019050919050565b60006020820190508181036000830152612307816122cb565b9050919050565b7f45524332303a207472616e736665722066726f6d20746865207a65726f20616460008201527f6472657373000000000000000000000000000000000000000000000000000000602082015250565b600061236a6025836117e9565b91506123758261230e565b604082019050919050565b600060208201905081810360008301526123998161235d565b9050919050565b7f45524332303a207472616e7366657220746f20746865207a65726f206164647260008201527f6573730000000000000000000000000000000000000000000000000000000000602082015250565b60006123fc6023836117e9565b9150612407826123a0565b604082019050919050565b6000602082019050818103600083015261242b816123ef565b9050919050565b7f45524332303a207472616e7366657220616d6f756e742065786365656473206260008201527f616c616e63650000000000000000000000000000000000000000000000000000602082015250565b600061248e6026836117e9565b915061249982612432565b604082019050919050565b600060208201905081810360008301526124bd81612481565b9050919050565b7f4f776e61626c653a2063616c6c6572206973206e6f7420746865206f776e6572600082015250565b60006124fa6020836117e9565b9150612505826124c4565b602082019050919050565b60006020820190508181036000830152612529816124ed565b9050919050565b7f45524332303a206d696e7420746f20746865207a65726f206164647265737300600082015250565b6000612566601f836117e9565b915061257182612530565b602082019050919050565b6000602082019050818103600083015261259581612559565b9050919050565b7f45524332303a206275726e2066726f6d20746865207a65726f2061646472657360008201527f7300000000000000000000000000000000000000000000000000000000000000602082015250565b60006125f86021836117e9565b91506126038261259c565b604082019050919050565b60006020820190508181036000830152612627816125eb565b9050919050565b7f45524332303a206275726e20616d6f756e7420657863656564732062616c616e60008201527f6365000000000000000000000000000000000000000000000000000000000000602082015250565b600061268a6022836117e9565b91506126958261262e565b604082019050919050565b600060208201905081810360008301526126b98161267d565b905091905056fea26469706673582212207974574b3a73d9fcc1a8d3e58578d334a0bc91b5ba6cdce46c9c4ec5050f9bd164736f6c63430008120033",
  "linkReferences": {},
  "deployedLinkReferences": {}
}